{
  "transactions": [
    {
      "hash": "0x8e93a3b328ecf825f3bbf0d81728db74cd475f10a078aec11c78d9f9a237eb75",
      "transactionType": "CALL",
      "contractName": null,
      "contractAddress": "0xe1211ad1d868ecb93f3174af4ba105f7d8c5e198",
      "function": "mintNft(string)",
      "arguments": [
        "ipfs://bafybeig37ioir76s7mg5oobetncojcm3c3hxasyd4rvid4jqhy4gkaheg4/?filename=0-PUG.json"
      ],
      "transaction": {
        "from": "0x9c0c78085504642a852020b28d4a15826ab36e94",
        "to": "0xe1211ad1d868ecb93f3174af4ba105f7d8c5e198",
        "gas": "0x3da80",
        "value": "0x0",
        "input": "0xda86f4a900000000000000000000000000000000000000000000000000000000000000200000000000000000000000000000000000000000000000000000000000000057697066733a2f2f62616679626569673337696f6972373673376d67356f6f6265746e636f6a636d3363336878617379643472766964346a71687934676b61686567342f3f66696c656e616d653d302d5055472e6a736f6e000000000000000000",
        "nonce": "0x17",
        "chainId": "0xaa36a7"
      },
      "additionalContracts": [],
      "isFixedGasLimit": false
    }
  ],
  "receipts": [
    {
      "status": "0x1",
      "cumulativeGasUsed": "0x942e6a",
      "logs": [
        {
          "address": "0xe1211ad1d868ecb93f3174af4ba105f7d8c5e198",
          "topics": [
            "0xddf252ad1be2c89b69c2b068fc378daa952ba7f163c4a11628f55a4df523b3ef",
            "0x0000000000000000000000000000000000000000000000000000000000000000",
            "0x0000000000000000000000009c0c78085504642a852020b28d4a15826ab36e94",
            "0x0000000000000000000000000000000000000000000000000000000000000000"
          ],
          "data": "0x",
          "blockHash": "0x1238b2bb92c157bcf2a5f262785ee10b95b89c5511ff5cea573c8b18773cfd21",
          "blockNumber": "0x9072a5",
          "blockTimestamp": "0x68f8f128",
          "transactionHash": "0x8e93a3b328ecf825f3bbf0d81728db74cd475f10a078aec11c78d9f9a237eb75",
          "transactionIndex": "0x5c",
          "logIndex": "0x63",
          "removed": false
        }
      ],
      "logsBloom": "0x00000000000000000000000000000000000000000000000000000000000000000000000000000000000000000000000000000000000000000000000000000000000000000000000000000008000002000000000000000000000000000000000000000000020000000000000000000800000800000000000000000010000000000000000000000000000000008000000000000000000000000000000000000000000000000000000000000000000000000000000000000000000000000800000000000002000000000020000000000000000000000000000000000000000020000200000000000000000000000000000000000000000000000000000000000000",
      "type": "0x2",
      "transactionHash": "0x8e93a3b328ecf825f3bbf0d81728db74cd475f10a078aec11c78d9f9a237eb75",
      "transactionIndex": "0x5c",
      "blockHash": "0x1238b2bb92c157bcf2a5f262785ee10b95b89c5511ff5cea573c8b18773cfd21",
      "blockNumber": "0x9072a5",
      "gasUsed": "0x2ca36",
      "effectiveGasPrice": "0xf4249",
      "from": "0x9c0c78085504642a852020b28d4a15826ab36e94",
      "to": "0xe1211ad1d868ecb93f3174af4ba105f7d8c5e198",
      "contractAddress": null
    }
  ],
  "libraries": [],
  "pending": [],
  "returns": {},
  "timestamp": 1761145130371,
  "chain": 11155111,
  "commit": "141130f"
}